:100000000C94D1060C9409070C9409070C94090769
:100010000C9409070C9409070C9409070C94090720
:100020000C9409070C9409070C94B12F0C9485309B
:100030000C9411290C9409070C9409070C940907D6
:100040000C9409070C9409070C9409070C940907F0
:100050000C9409070C9498290C9409070C9409072F
:100060000C9409070C9409070C9409070C940907D0
:100070000C9409070C9409070C9409070C940907C0
:100080000C9409070C9409070C9409070C940907B0
:100090000C9409070C9409070C9409070C940907A0
:1000A0000C9409070C9409070C940907BE5C1E0008
:1000B0001F0020002100220023002400250026002C
:1000C00027002D002E00310035002B0014001A00EF
:1000D0000800150017001C0018000C001200130087
:1000E0002F00300000002A00E00004001600070086
:1000F00009000A000B000D000E000F003300340051
:10010000000028000000E1001D001B00060019008F
:100110000500110010003600370038000000E5002F
:1001200000000151E300E2000000000000002C008C
:10013000000000000000E600E700000000000000F2
:10014000000001003A003B003C003D003E003F0043
:1001500040004100420043004400450001006800A7
:100160000100010001000100010001000100010087
:100170000100010001005200010000004C003900A4
:100180000100010001000100010001000100010067
:10019000010050004F0000000100000001000100BC
:1001A0000100010001000100010001000100010047
:1001B0005100000002510000010001000100000098
:1001C000000000000100000000000000010001002C
:1001D000000000000000000001000100010001001B
:1001E0000100010001000100010001000100010007
:1001F00001000100010001000100010001000100F7
:10020000010001000100010001000100A90001003E
:1002100000000100010001000100010001000100D7
:100220000100010001000100AC00AB000000010072
:1002300000000100010001000100010001000100B7
:10024000010001000100AA000000010000000100FF
:1002500001000100000000000000AE0000000000EE
:10026000000001000100000000000000000001008B
:100270000100010001000100010001000100010076
:100280000100010001000100010001000100010066
:100290000100010001000100010001000100010056
:1002A0000100010001000000010001000100010047
:1002B0000100010001000100010001000100010036
:1002C0000100000001000000010001000100010028
:1002D0000100010001000100010001000100000017
:1002E000010000000100010001000000000000000A
:1002F00001000000000000000100010000000000FB
:100300000000000044454255473A20646973616229
:100310006C65642E0A0044454255473A20656E617B
:10032000626C65642E0A000A0025303258006C6544
:10033000645F7461736B3A20004F6E6573686F740D
:100340003A206163746976653A2025640A000A00E0
:100350002530313662003A200025303258000A72CA
:100360002F63203031323334353637383941424308
:100370004445460A00290A002575002F002575000E
:100380005D2800256400200025640020002564000D
:1003900020002564007C0025303258006D6F757395
:1003A000656B6579205B62746E7C7820792076209D
:1003B000685D287265702F61636C293A205B00626A
:1003C00061636B6C6967687420737465703A20258B
:1003D000750A006261636B6C696768742064697395
:1003E00061626C650A006261636B6C6967687420A6
:1003F000656E61626C650A006261636B6C69676857
:100400007420746F67676C653A2025750A00626115
:10041000636B6C696768742064656372656173659A
:100420003A2025750A006261636B6C696768742005
:10043000696E6372656173653A2025750A00000074
:100440000000000000002A2B28000000000000002F
:1004500000000000000000000029000000002C1E29
:100460003420212224342627252E362D3738271EE6
:100470001F202122232425263333362E37381F040C
:1004800005060708090A0B0C0D0E0F1011121314A4
:1004900015161718191A1B1C1D2F3130232D350462
:1004A00005060708090A0B0C0D0E0F101112131484
:1004B00015161718191A1B1C1D2F3130354C00004A
:1004C000000000000000000000000000000000002C
:1004D000000000000000000000000000000000001C
:1004E00000007E0F00D4FFFFFFC700000078313A04
:1004F0000964656C6179282A31306D73293A2025A9
:10050000750A323A09696E74657276616C286D738A
:10051000293A2025750A333A096D61785F73706551
:1005200065643A2025750A343A0974696D655F740B
:100530006F5F6D61783A2025750A353A09776865ED
:10054000656C5F6D61785F73706565643A202575D1
:100550000A363A09776865656C5F74696D655F7422
:100560006F5F6D61783A2025750A00703A097072E4
:10057000696E742076616C7565730A643A097365F7
:10058000742064656661756C74730A75703A092B22
:10059000310A646E3A092D310A6C743A092B3130F4
:1005A0000A72743A092D31300A4553432F713A09C2
:1005B000717569740A0A7370656564203D2064650D
:1005C0006C7461202A206D61785F737065656420AA
:1005D0002A2028726570656174202F2074696D650A
:1005E0005F746F5F6D6178290A7768657265206452
:1005F000656C74613A20637572736F723D25642C6B
:1006000020776865656C3D25640A536565206874CC
:1006100074703A2F2F656E2E77696B697065646907
:10062000612E6F72672F77696B692F4D6F757365D8
:100630005F6B6579730A004D3E20004D25753A25A4
:10064000733E20003F0A003D2025750A003F0A0046
:1006500064656661756C74730A0025750A003F0A4B
:10066000000A092D2056616C756573202D0A0071F2
:100670000A000A092D204D6F7573656B6579202D71
:100680000A003F00433E20004C25640A000A092D61
:1006900020537461747573202D0A686F73745F6BD7
:1006A0006579626F6172645F6C65647328293A20B2
:1006B000253032580A6B6579626F6172645F7072BF
:1006C0006F746F636F6C3A20253032580A6B65790E
:1006D000626F6172645F69646C653A2025303258DC
:1006E0000A6B65796D61705F636F6E6669672E6E08
:1006F0006B726F3A20253032580A74696D65725FEB
:1007000072656164333228293A202530386C580AE2
:10071000002573000A092D20436F6E736F6C6520EE
:100720002D0A4553432F713A09717569740A6D3A60
:10073000096D6F7573656B65790A000A092D204D87
:1007400061676963202D0A443A0944656275672030
:100750004D65737361676520546F67676C650A58F0
:100760003A094D6174726978204465627567204D5D
:100770006F646520546F67676C65202D2053686F28
:1007800077206B65797072657373657320696E206D
:100790006D617472697820677269640A4B3A094B1B
:1007A0006579626F61726420446562756720546F79
:1007B00067676C65202D2053686F77206B657970B3
:1007C00072657373207265706F72740A4D3A0944D2
:1007D00065627567204D6F75736520546F67676C30
:1007E000650A563A0956657273696F6E0A533A097B
:1007F0005374617475730A433A094163746976618D
:10080000746520436F6E736F6C65204D6F64650A6D
:1008100046312D4631303A09537769746368207444
:100820006F204C6179657220302D39202846313097
:10083000203D204C30290A302D393A09537769740C
:10084000636820746F204C6179657220302D390AFD
:1008500047524156453A0953776974636820746F6B
:10086000204C6179657220302028616C7465726E4D
:10087000617465290A423A094A756D7020746F20C7
:10088000426F6F746C6F616465720A4553433A0935
:100890004A756D7020746F20426F6F746C6F616465
:1008A00065722028616C7465726E617465290A45F1
:1008B0003A095072696E7420454550524F4D20538D
:1008C000657474696E67730A4241434B53504143E8
:1008D000453A09436C65617220454550524F4D0AB7
:1008E0004E3A094E4B524F20546F67676C650A00B1
:1008F0006261636B6C696768745F636F6E6669677A
:100900002E7261773A20253032580A2E656E616268
:100910006C653A2025750A2E6C6576656C3A202543
:10092000750A006B65796D61705F636F6E666967EC
:100930002E7261773A20253032580A2E7377617013
:100940005F636F6E74726F6C5F636170736C6F6303
:100950006B3A2025750A2E636170736C6F636B5F51
:10096000746F5F636F6E74726F6C3A2025750A2E18
:10097000737761705F6C63746C5F6C6775693A2044
:1009800025750A2E737761705F7263746C5F72678E
:1009900075693A2025750A2E737761705F6C616CFA
:1009A000745F6C6775693A2025750A2E73776170DC
:1009B0005F72616C745F726775693A2025750A2EE3
:1009C0006E6F5F6775693A2025750A2E73776170BF
:1009D0005F67726176655F6573633A2025750A2EDD
:1009E000737761705F6261636B736C6173685F6280
:1009F00061636B73706163653A2025750A2E6E6BB7
:100A0000726F3A2025750A2E737761705F65736384
:100A10006170655F636170736C6F636B3A202575FD
:100A20000A0064656275675F636F6E6669672E7240
:100A300061773A20253032580A2E656E61626C6506
:100A40003A2025750A2E6D61747269783A202575F1
:100A50000A2E6B6579626F6172643A2025750A2EE1
:100A60006D6F7573653A2025750A006565636F6E55
:100A70006669673A0A64656661756C745F6C617972
:100A800065723A2025750A003F004E4B524F3A20BE
:100A90006F66660A004E4B524F3A206F6E0A000A8C
:100AA0006D6F7573653A206F66660A000A6D6F7523
:100AB00073653A206F6E0A000A6B6579626F617226
:100AC000643A206F66660A000A6B6579626F61722C
:100AD000643A206F6E0A000A6D61747269783A2078
:100AE0006F66660A000A6D61747269783A206F6EEB
:100AF0000A000A64656275673A206F66660A000A32
:100B000064656275673A206F6E0A000A0A4A756D5D
:100B100070696E6720746F20626F6F746C6F6164B0
:100B200065722E2E2E2000433E2000436C656172BC
:100B3000696E6720454550524F4D0A000A00253026
:100B4000325820006B6579626F6172645F72657004
:100B50006F72743A200064656C5F6B65795F6269DF
:100B6000743A2063616E27742064656C3A202530E6
:100B700032580A006164645F6B65795F6269743A38
:100B80002063616E2774206164643A2025303258F6
:100B90000A005B735D005B575D005B535D005B5259
:100BA0005D005B445D005B435D000E03430061003C
:100BB0006D0070007500730000001A034D004100C5
:100BC0004E005500460041004300540055005200BD
:100BD0004500520000000403090409027B000401DF
:100BE00000A0FA090400000103010100092111011C
:100BF00000012240000705810308000109040100EB
:100C00000203000000092111010001222200070552
:100C100082032000010705030320000109040200EC
:100C2000010300000009211101000122B60007059F
:100C300084032000010904030002030000000921CD
:100C4000110100012222000705850320000107058C
:100C50000503200001120100020000000850468038
:100C6000670100010200010631FF0974A101097545
:100C7000150026FF009520750881020976150026CB
:100C8000FF00952075089102C00660FF0961A1016F
:100C90000962150026FF0095207508810209631579
:100CA0000026FF00952075089102C005010902A1E8
:100CB0000185020901A1000509190129081500256E
:100CC0000195087501810205010930093115812559
:100CD0007F95027508810609381581257F95017574
:100CE000088106050C0A38021581257F95017508D3
:100CF0008106C0C005010980A101850319012AB739
:100D000000150126B700950175108100C0050C097A
:100D100001A101850419012AA002150126A002954E
:100D20000175108100C005010906A10185060507AE
:100D300019E029E7150025019508750181020507CD
:100D4000190029EF1500250195F0750181020508AC
:100D50001901290595057501910295017503910108
:100D6000C005010906A101050719E029E7150025BD
:100D70000195087501810295017508810105071922
:100D80000029FF150026FF0095067508810005085B
:100D900019012905950575019102950175039101C8
:100DA000C00011241FBECFEFDAE0DEBFCDBF04B616
:100DB00003FE18C08091110490911204A0911304B5
:100DC000B09114048730904BA740B04B59F4109267
:100DD0001104109212041092130410921404E0E013
:100DE000F8E3099512E0A0E0B1E0E2E6F7E602C020
:100DF00005900D92A83DB107D9F724E0A8EDB2E027
:100E000001C01D92A131B207E1F70E94A0170C9416
:100E100047330C940000FF93EF93E091D802F091D8
:100E2000D902309709F00995EF91FF910895FC01DF
:100E30008591803011F0EFDFFBCF0895FF27E0E2CE
:100E400030E247FF0CC0419597FF09C0EDE2609585
:100E5000709580959095611D711D811D911D27FFD5
:100E600002C0219530E350E2AA27660F771F881F42
:100E7000991FAA1FA41710F0A41B63955A95A9F7F0
:100E8000AA3008F0A95FA05DAF93F39561157105D5
:100E90008105910541F7ED3211F4EF93F395F217C7
:100EA00018F43F93F395FBCF8F91B5DFFA95E1F7F7
:100EB0000895E991F9918591803021F0853219F0FA
:100EC000AADFF9CF089520E0E89455915532C1F397
:100ED000503311F4689455915A3348F4505390F3B9
:100EE000220F022E220F220F200D250FF4CF0EF419
:100EF000219589919991533619F3533729F1533537
:100F000059F1BC0188279927E8945C3621F489912E
:100F1000999168945591543639F446EF7EF077FFF5
:100F20000DC08FEF9FEF0AC055374AE039F05835B2
:100F300040E121F0523642E009F00895FF93EF932B
:100F40007DDFEF91FF91B7CFFF93EF93FC0181918C
:100F50008030B9F360DFFBCFFF93EF9368DFF1CF11
:100F6000DF93CF93CDB7DEB72596A3DFCF91DF9187
:100F70000895811108C089EA611101C08AEA0E94BE
:100F8000A30A81E008958130E1F78DEB6111F7CF7D
:100F90008EEBF5CF84E0089581E0089581E0089517
:100FA0000E94CE07089508950E94D3070895A5E0F2
:100FB000B0E0EDEDF7E00C94C73249835A833091ED
:100FC000DF0289819A81311119C0662399F02223A9
:100FD00089F00E94320E182F682F89819A810E9411
:100FE0000E0E69817A81812F0E94A1252596E3E06A
:100FF0000C94E3320E94200E182FF3CF0E94320E81
:1010000069817A81F1CFFC01262F40815181628173
:10101000738184810E94D707089581E00895CF935A
:10102000DF93EC0160E00E940308BE010E94D40738
:10103000DF91CF910895E1E0F0E0DF0102C0AA0F57
:10104000BB1F6A95E2F7BD01DF0102C0AA0FBB1FFB
:101050004A95E2F76A2B01C0EE0F2A95EAF7962F20
:101060009823961302C08E2B0895E0958E23089541
:10107000242F462F682F8091FE020E941B080E9499
:101080006E0D08950E94051608950E940916089590
:1010900008950E94000D0E9448082FEF84E39CE011
:1010A000215080409040E1F700C0000008950E9468
:1010B00049080E94BC2908950E9449080E94E0291D
:1010C00008950F931F93CF93DF938C0161E00E94EB
:1010D0000308EC01B8010E94621D811106C080E086
:1010E000DF91CF911F910F910895B801CE010E9419
:1010F000D0078823A1F3B801CE010E94101C8823D9
:1011000071F3B801CE010E94E726882341F3B801AC
:10111000CE010E94861E882311F3B801CE010E94E1
:1011200059268823E1F2F80182818823D9F0CA3553
:10113000FDE5DF07A9F170F4C130ECE5DE07B1F0A1
:10114000CE3DFCE5DF0721F1C115DC4559F40E94D5
:101150005708C5CFCC35EDE5DE07F9F020F1C73AE9
:10116000DD45C1F0C8010E94CC07BACF909194032D
:10117000892F8E7F90FF81608093940380FF05C04C
:1011800086E193E00E941707AACF84E093E0FACFAC
:101190000E94FE120E945C08A2CF0E943812E2CF89
:1011A0000E944212DFCF0E944612DCCF0E94ED283F
:1011B00080E00E94451C0E941D0908950E94D21AD9
:1011C0000E9421090E94F2280895829590E09C01D6
:1011D000220F331F220F331F2C7C959587959595F1
:1011E00087958373282B30E0C901880F991F8A7A6D
:1011F000359527952575822B0895CF93DF93D92FA9
:101200000E94E508C82F8D2F0E94E5089C2FDF91D2
:10121000CF91089508950E940A09089581E00895E4
:101220000E940E0908950895CF93C82F0E940B09BC
:101230008C2F0E941009CF91089580E00E9414091C
:1012400008950E9443270E9414090895CF930E9495
:101250004327C82F8091DA028C1789F1C093DA02F4
:101260000E947D296093DB027093DC028093DD0293
:101270009093DE028091940382FF1EC080FF1CC009
:101280008EE293E00E9417078091940380FF14C0C0
:101290001F92CF9389E293E09F938F930E94B007B0
:1012A000809194030F900F900F900F9080FF04C0D7
:1012B00087E293E00E9417078C2F0E941409CF91B8
:1012C0000895ABE0B0E0E7E6F9E00C94C8324F8354
:1012D000588769877A878B8761110E9470111E82F7
:1012E0001D8285E0FE013796DE01119601900D9278
:1012F0008A95E1F78C819D81892B61F449815A811E
:101300006B817C818D819E810E9499102B96E2E0F9
:101310000C94E43289819A8189238F3F79F3CE013D
:1013200001960E940D088111E9CFF0CFFC01808168
:1013300091810E945F0E0895CF93C82F8823C9F032
:101340008238C9F40E94432781FD13C089E30E94BB
:1013500028110E9491112FEF87EE93E021508040D9
:101360009040E1F700C0000089E30E9430110E9424
:101370009111CF9108958338A1F40E94432780FDF5
:10138000F8CF83E50E9428110E9491112FEF81EE82
:1013900094E0215080409040E1F700C0000083E5D8
:1013A000E4CF8438A1F40E94432782FDE2CF87E492
:1013B0000E9428110E9491112FEF81EE94E021509C
:1013C00080409040E1F700C0000087E4CECF8CEF72
:1013D0008C0F813AB8F48C2F0E947B248111C9CFE5
:1013E0006C2F80910001909101010E94F1278823C8
:1013F00029F08C2F0E9430110E9491118C2F0E9495
:101400002811B5CF80E28C0F883048F4C77081E096
:1014100001C0880FCA95EAF70E945311A8CFEBE5E7
:10142000EC0FE33040F4F0E0EB5BFE4F808190E0A6
:101430000E94B1279ECFE8E5EC0FE73150F4F0E0D1
:10144000EE0FFF1FE95EFE4F808191810E94C7274A
:1014500090CFC03F08F48DCF8C2F0E9424180E949B
:10146000F71887CF882309F455C0823879F40E9491
:10147000432781FF4FC089E30E9428110E949111E8
:1014800089E30E9430110E9491110895833859F424
:101490000E94432780FF3EC083E50E9428110E94DE
:1014A000911183E5EECF843859F40E94432782FFDF
:1014B00031C087E40E9428110E94911187E4E1CF96
:1014C0009CEF980F913AE8F290E2980F983050F420
:1014D000877091E001C0990F8A95EAF7892F0E94E1
:1014E0005911D1CF9BE5980F933028F490E080E01C
:1014F0000E94B127089598E5980F973128F490E05D
:1015000080E00E94C7270895803F20F00E947E1847
:101510000E94F71808951F93CF93DF93182FEB01C4
:101520000E949C09209739F4812F0E94320ADF9192
:10153000CF911F9108958FE99FE00197F1F700C0C7
:1015400000002197EFCF70E060E0893311F460E58F
:1015500070E00E948B0A0895882321F00E945311A5
:101560000E9491110895882321F00E9459110E9430
:1015700091110895B0E0A0E0E0ECFAE00C94C132E3
:101580006C01D62FC72FFC011281F580F2949FE0E9
:10159000F9220E944911E82E8823B9F0E12E112387
:1015A000A1F08C2F807F803421F080E28D0F883075
:1015B000D0F08091EA0382FF16C082E00E94F4110D
:1015C0000E94491191E0E82EE926BC2EB2948FE0EA
:1015D000B822FBE0FB1508F468C0EB2DF0E0E75BF8
:1015E000FC4C0C949132E12CF0CF0C2F0F70C07F8B
:1015F00011F00295007F112399F0002359F080E249
:101600008D0F883010F0D11107C0802F0E94531128
:101610000E9491118D2F41C0802F0E946311F8CF3D
:101620008D2F0E94320A002309F43FC080E28D0F03
:10163000883010F0D11104C0802F0E94591103C0CE
:10164000802F0E9469110E9491112FC00C2F0F70E2
:10165000C07FC03211F00295007FDD2381F0D130D0
:1016600009F463C0112309F46DC0FF2009F463C0BD
:10167000F601858180FFCECF8F7085835CC080911D
:10168000EA0382FD33C0112359F0002329F0802F93
:101690000E9453110E94911180E00E949C0905C094
:1016A00080E00E94320A0111C7CFEB2DE850FF0BFA
:1016B000349720F40E9443270E941409EE2089F0F9
:1016C0000E94451180FD0DC0F60112820E943F115B
:1016D0000E94820DC6010E94C00C0E943F110E9410
:1016E0008E0DCDB7DEB7E9E00C94DD32112389F021
:1016F000F11006C00E947311802B0E94AC0AD5CF56
:1017000021E0F212F7CF0E947311802B0E947A1110
:10171000CCCFF11006C00E948711802F0E94B30A1F
:10172000C4CF31E0F31609F2F6CF112331F085E092
:101730008F1508F4BACF802FE0CF94E09F1508F4FE
:10174000B4CFEBCFFF2049F3D93349F4FFEF27EEB5
:1017500033E0F15020403040E1F700C000008D2F11
:101760000E94320AA2CF8C2F86958695837069F0ED
:10177000813009F09ACF8D2F9C2F9370111102C0E8
:1017800090E080E00E94C72790CF8D2F9C2F937010
:10179000111102C090E080E00E94B12786CF8D2F0A
:1017A000112329F00E9424180E94F7187ECF0E946E
:1017B0007E18FACF8C2F837079F5111176CF4D2FCB
:1017C000429546954770440F440F8D2F8F70042E1D
:1017D00001C0880F0A94EAF72D2F2071D4FF07C0AB
:1017E0002FE030E001C0220F4A95EAF72095C69518
:1017F000C695C370822BC23049F058F4C13019F03D
:101800000E945C0D52CF0E94560D4FCF0E94620D78
:101810004CCF0E94530D49CF8695112311F08C2F88
:101820008170882309F441CF4D2F4295469547702A
:10183000440F440F8D2F8F70042E01C0880F0A941F
:10184000EAF72D2F2071D4FF07C02FE030E001C050
:10185000220F4A95EAF72095C695C695C370822B4C
:10186000C23049F058F4C13019F00E94AD0D1DCFBF
:101870000E94A70D1ACF0E94B30D17CF0E946E0DC4
:1018800014CFCF70112329F08C2F0E94820D8D2F41
:1018900034CF8D2F0E94B30A8C2F0E948E0D05CF5E
:1018A000D23F51F160F4D03FB9F0D13F81F0112324
:1018B00009F449C0F110AECE8C2F8F7121C0D33FF7
:1018C00011F1D43FA1F78091EA0382FD26C08C2F4D
:1018D0008F71112311F314C0112349F084E08F1587
:1018E00008F4E3CE8C2F8F710E949B0DDECE95E025
:1018F0009F1508F4DACEF6CF8C2F8F711111CDCF52
:101900000E94820DD2CE112329F08C2F8F710E945C
:10191000790DCBCE0E94750DC8CE112349F0CF7141
:101920008C2F0E94820D63E08C2F0E94D611BDCEB9
:1019300081E00E94F411E1E0EF1508F0B6CE82E0FC
:101940000E94F411B2CEF110FFCE8C2F8F71A5CF73
:101950000F931F93CF93DF93EC01688179818A8184
:101960000E946A0E8C010E94B90D0E94520DB801AE
:10197000CE010E94BA0ADF91CF911F910F91089575
:10198000CF93DF93EC018B819C81892B29F0888197
:10199000998189238F3F51F4DF91CF910895CE0132
:1019A0000E94A80CCE010E940F08F6CFCE010E9423
:1019B00061088111F4CF0E944911882369F38A815B
:1019C000882351F38091EA0382FFE6CF82E00E94F0
:1019D000F411E2CF90E080E00E94B12790E080E037
:1019E0000E94C7270E9470110E9491110E949519B0
:1019F0000E94F71808950E9438110E94EA0C089579
:101A00000E9460110E94FB0C089592959F70963081
:101A100091F058F4925F9F70923058F4803F19F023
:101A200030F4883E30F481E008959A5FF4CF843F2B
:101A3000D1F380E00895883EB0F3813FD1F7F3CF32
:101A4000FC0183819481892B29F0808191818923F4
:101A50008F3F11F480E00895808191810E945F0E94
:101A60000E94050D0895A5E0B0E0E9E3FDE00C94C7
:101A7000C8322596E2E00C94E432A6E0B0E0E3E45C
:101A8000FDE00C94C8322696E2E00C94E43208950E
:101A90000E94470D08950E94480D8093FF020E9406
:101AA000EA0C089508950E944B0D08959091FF024D
:101AB000892B0E944B0D08959091FF0289230E946B
:101AC0004B0D08959091FF0289270E944B0D0895B8
:101AD0000E94470D08950E94680D08950E946B0DA5
:101AE0008093FE020E94EA0C089580E00E946E0D31
:101AF000089591E001C0990F8A95EAF7892F0E9415
:101B00006E0D089521E030E001C0220F8A95EAF7BA
:101B10008091FE02822B0E946E0D089521E030E03C
:101B200001C0220F8A95EAF720958091FE02822358
:101B30000E946E0D089521E030E001C0220F8A95C9
:101B4000EAF78091FE0282270E946E0D089590911F
:101B5000FE02892B0E946E0D08959091FE0289234A
:101B60000E946E0D08959091FE0289270E946E0DCD
:101B700008950895262F277091E001C0990F2A95A6
:101B8000EAF723E0769567952A95E1F7FB01EE0FDA
:101B9000FF1FE60FF71FE40FF51F50E040E0682F2E
:101BA00070E08191DF0111979B01042E02C03695F0
:101BB00027950A94E2F721702195282729232827C1
:101BC0002C934F5F5F4F4330510559F70895A82F6D
:101BD000A77023E0969587952A95E1F7FC01EE0F13
:101BE000FF1FE80FF91FE60FF71F50E040E080E00D
:101BF000219130E00A2E02C0369527950A94E2F72B
:101C000021703327042E01C0220F0A94EAF7822B99
:101C10004F5F5F4F4330510559F70895262F953098
:101C200070F48F3060F4682F70E08FE0989F600D43
:101C3000711D112440EE52E0822F0E94BA0D0895CA
:101C4000292F953068F48F3058F490E060EE72E000
:101C50003FE0239F800D911D11240E94E70D089500
:101C600080E00895CF92DF92FF920F931F93CF935E
:101C7000DF936C010091FE028091FF02082BC7E008
:101C8000D0E010E0FC2EC8010C2E02C0959587957F
:101C90000A94E2F780FD0CC02197A0F7F12C8F2D5C
:101CA000DF91CF911F910F91FF90DF90CF9008951A
:101CB000B6018C2F0E94E514019771F3F0CFCF93FA
:101CC000DF93EC010E94320EBE010E94E514DF9109
:101CD000CF9108951F93CF93DF93EB019091DF0293
:101CE000992339F0CB010E945F0EDF91CF911F91B4
:101CF0000895882369F0CB010E94320E182F682FB7
:101D0000CE010E940E0EBE01812F0E94E514EDCF80
:101D1000CB010E94200E182FF6CF1F93CF93DF9395
:101D2000C091000316E0809101038C1304C0DF9181
:101D3000CF911F910895D0E01C9FF0011D9FF00DE1
:101D40001124EE5FFC4F4081518162817381848157
:101D500095810E943D0D2196C770E5CF40913203D9
:101D600050913303609134037091350380913603B1
:101D7000909137030E943D0D08951F93CF93DF93F9
:101D800080913703807F09F049C080913403882314
:101D900009F444C080910003C091010360913203B3
:101DA00070913303A0913503B0913603D62FD7231A
:101DB00016E0C81799F190E0109711F0DF3F19F481
:101DC00001968770F6CF189F9001199F300D11244E
:101DD000F901EE5FFC4F41814713F2CF408146137A
:101DE000EFCF42814111ECCF438154814A1B5B0B01
:101DF000483C510528F7809137038F7080618093AC
:101E00003703F901E95FFC4F80818F708061808327
:101E100082E393E00E94C00C0E948D0EDF91CF916F
:101E20001F910895A1E1B0E0E8E1FFE00C94C03219
:101E30008C0185E0F801DE011D9601900D928A95D6
:101E4000E1F7F801E28082E3C82E83E0D82E6091AA
:101E50003503709136036115710509F44EC19091F7
:101E6000320320913303892F82238F3F09F445C128
:101E700040815181A380B480F0903403F501E61BCA
:101E8000F70BFF2009F4EAC080913703382F307F29
:101E9000E83CF10508F0A3C031116DC0FE2C2513FC
:101EA00016C0941314C0E11012C08F70806180932B
:101EB00037030E94AE0EC6010E94C00C809137030A
:101EC000F80185838F2D6196EAE00C94DC32A11431
:101ED000B10429F0842F85238F3F09F027C180E0CA
:101EE000F82FF170DF2E80FF3CC08091000320911D
:101EF000010336E0821315C04D875E878D859E8570
:101F00000E945F0E292F22952F702230F0F024308E
:101F100018F59F70F1F0F8019581907FD1F4D12CE4
:101F20001EC090E0389FF001399FF00D1124EE5F44
:101F3000FC4F6181651306C06081641303C0628138
:101F4000E6120FC001968770D5CF9F7011F08823DD
:101F500031F3805E883018F3C8010E94C00CFD2C5C
:101F6000B1CFEE2009F4AECF80913703816080932A
:101F70003703F12CA7CF251306C0941304C0F80132
:101F8000EE2009F487C0C8010E94200D882319F1B2
:101F9000EE2009F180913703803270F020913203F6
:101FA0003091330338872F831986BB86AA868C87A6
:101FB000CE0107960E94C00C86E0F801A2E3B3E0D0
:101FC00001900D928A95E1F70E94BD0E0E94AE0E1F
:101FD000FF24F39477CFC8010E94C00CF9CF3111D0
:101FE00013C07A2DB98AA88A6E2D89890E94330D73
:101FF00082E393E00E94C00C86E0F60111928A957C
:10200000E9F70E94AE0EB5CF25130FC094130DC093
:10201000E1100BC0F8018583C8010E94C00C86E066
:10202000F60111928A95E9F74DCFC8010E94200D63
:10203000882389F2EE2079F280913703803208F408
:10204000BBCF20913203309133033A8329831B8223
:10205000BD82AC828E83CE010196ACCFE83CF10507
:1020600008F03EC0FE2CEE2009F4B5CF25132AC09F
:10207000941328C08091370380FD1BC0982F907F58
:10208000C1F0F8018583903F31F0982F907F905FE9
:102090008F70892B8583C8010E94C00C86E0F801EF
:1020A000A2E3B3E001900D928A95E1F70E94AE0E93
:1020B00009CF86E0F801A2E3B3E001900D928A9582
:1020C000E1F700CFC8010E94200D811175CF8091EA
:1020D0003703816080933703C8010E94C00CF2CEA1
:1020E0007A2DB98AA88A6E2D89890E94330D86E0DF
:1020F000F60111928A95E9F7D9CFEE2009F46BCF5A
:10210000C8010E94200DF82E882309F464CF86E0D0
:10211000F801A2E3B3E001900D928A95E1F782E322
:1021200093E00E9496090E94BD0EC0CF81E08E25EB
:10213000D7CEACE0B0E0EFE9F0E10C94C7324F83CA
:10214000588769877A878B879C87CE0107960E947C
:10215000120F882369F08A859B85892B39F04F817E
:102160005885842F85238F3F09F06BC016E05FC030
:1021700086E0FE013796DE01119601900D928A9558
:10218000E1F78A859B85892B89F38F81988589233F
:102190008F3F61F32091010330E0C9010196877000
:1021A0009927409100034817190671F40E94000D09
:1021B000109201031092000386E0E2E3F3E0DF01F6
:1021C0001D928A95E9F7D2CF96E0929FD001939F16
:1021D000B00D1124AE5FBC4FFE01319601900D92FF
:1021E0009A95E1F7809301030E948D0EBFCF819FE6
:1021F000C00111248E5F9C4F0E94120F8823E9F0CA
:10220000E09100031E9FF0011124EE5FFC4F40811E
:10221000518162817381848195810E943D0D8091FD
:10222000000390E0019687709927809300038091C6
:102230000003909101038913DACF2C96E3E00C940C
:10224000E33269857A858B859C850E943D0D8ECF12
:10225000682F80910001909101010E9493280895B8
:10226000682F80910001909101010E94A12808959A
:1022700080910001909101010E94AF280895809102
:1022800058038595859585950895809158038770A5
:10229000089590915803977081E009F480E00895C3
:1022A00080917B03089590917B03892B80937B031E
:1022B0000895809590917B03982390937B030895D4
:1022C00010927B03089590917A03892B80937A036F
:1022D0000895809590917A03982390937A030895B6
:1022E00010927A03089580915903089508950E94E9
:1022F000761108959091EA0392FF08C090915903D6
:10230000981721F0809359030E94771108958091C6
:102310005903882329F01092590380E00E94771115
:102320000895CF93DF93E0910001F0910101809136
:102330007B038083E0910001F09101018081909105
:102340007A03892B808390915903992381F0E0913E
:102350000001F09101018081892B8083809100012F
:10236000909101010E94DD2781110E948711C09187
:102370000001D091010140E250E068E373E0CE013A
:102380000E94EF32892B59F080E2FE01A8E3B3E00E
:1023900001900D928A95E1F7CE010E945027DF91BE
:1023A000CF91089508950E94D21108959091EA0363
:1023B00092FF11C098E0899F90011124622B6093D5
:1023C00058030E94820D80915803859585958595C7
:1023D0000E94D31108950E94820D0895109258030F
:1023E00080E00E94D311089590915803809589232D
:1023F00080935803282F277091F4282F082E000C63
:10240000330B9217130659F09091EA0392FF07C01D
:102410008595859585950E948E0D0E94EE110895F3
:10242000CF93C82F8091EA0382FB992790F99C17DC
:10243000E9F0C0FB82F98093EA038091E90390916F
:10244000EA030E94751282E00E94F41180919403C5
:1024500080FF0CC01F92CF9389E393E09F938F93EB
:102460000E94B0070F900F900F900F90CF9108959A
:102470008091EA0382FB882780F991E089270E94F6
:102480001012089581E00E941012089580E00E94C9
:10249000101208956FEF7FEF90E080E00E943133DB
:1024A000089590E080E00E940D33883E9E4F19F41D
:1024B0000E94FD1C089580E0089582E090E00E9453
:1024C0000533089583E090E00E9405330895CF938B
:1024D00084E090E00E940533C82F82E290E00E94E1
:1024E0000533982F8C2FCF910895CF93C92F682F44
:1024F00084E090E00E9413336C2F82E290E00E940F
:102500001333CF910895AB01BC018FE090E00E949E
:1025100025330895AB01BC0183E190E00E9425338F
:10252000089560E070E0CB010E948A12089560E097
:1025300070E0CB010E9483120E949112089568EE10
:102540007EEF90E080E00E94313360E082E090E036
:102550000E94133360E083E090E00E9413331092F6
:10256000FF0260E084E090E00E94133364E082E2C6
:1025700090E00E94133360E085E090E00E94133306
:1025800060E086E090E00E9413336FEF87E090E018
:102590000E94133340E050E0BA0188E090E00E94CE
:1025A000253360E08DE090E00E94133340E050E07E
:1025B000BA0188E190E00E94253360E087E190E075
:1025C0000E94133340E050E0BA018CE190E00E9499
:1025D000253370E060E080E290E00E94313340E01B
:1025E00050E0BA0188E190E00E94253380E00E942B
:1025F000161D0E94451D0E94971208950E949F1269
:102600000895682F8EE090E00E94133308950E9491
:102610007D2960939003709391038093920390932C
:10262000930360938C0370938D0380938E03909338
:102630008F0308950E947D29609390037093910306
:10264000809392039093930360938803709389031C
:1026500080938A0390938B030895089508950E94B0
:102660002E13089508950E94321308958BE09CE282
:102670000E9439270E942D130E942F13089581E094
:1026800008950E943F130895089508950E944413E9
:102690000E94451308950E94E9150E9413090E94A3
:1026A000EC1C08950E9468290E94551D0E94011784
:1026B0000E944B130E94D21A0E94C1200E94331321
:1026C0000895AAE0B0E0E7E6F3E10C94BD320E9481
:1026D00017172EE7822E23E0922E640110E0F601F8
:1026E000E190F1906F01812F0E940C161F5F153051
:1026F00009F449C0E816F90691F38091940381FD2D
:102700000E9415160E944113782E10E0812F0E941E
:102710000C167C01F401A190B1904F018A159B0524
:1027200061F1A826BF2400E0CC24C394D12CC501BC
:102730008C219D21892BC1F07720B1F00E831F835E
:1027400021E0C7018C219D21892B09F420E02887F5
:102750000E9471298160782F9A8789874E815F81D5
:1027600068858A850E9461090F5FCC0CDD1C0F30E3
:10277000F1F6F4013297F182E0821F5F153031F6F5
:102780000E94071322C0E816F90609F0B6CF0E948E
:1027900071298C0180917C0390917D0308171907A2
:1027A000A1F08FEF89838A831B820E947129816047
:1027B000782F9D838C8349815A816B818D810E9402
:1027C000610910937D0300937C030E94EB1C0E941F
:1027D000322181110E941A130E94B7190E94260902
:1027E0002A96EDE00C94D932CF93DF930E94EA143D
:1027F000EC01811521E5920708F042C0811530E512
:10280000930708F09FC0883E910530F5803E910502
:1028100008F094C0883A910588F4853A910508F04B
:1028200086C08130910509F489C0009709F486C0FB
:10283000049708F083C0D0E0C0E080C08F3B9105D2
:10284000D0F7C85AD0E0CC0FDD1FC85BDE4F09902F
:10285000D881C02DD46472C0811540E2940750F431
:10286000C11581E0D80708F069C0C03FD10518F351
:10287000D06564C081159044F0F2DF70D06A5EC00C
:10288000811535E5930718F5811544E5940708F09F
:1028900085C0C11583E5D80708F06CC0C11522E5D5
:1028A000D20708F462C0CE018370992721E030E09E
:1028B00002C0220F331F8A95E2F7C695C69580E2C3
:1028C000C89FE0011124C22BD32BDC6837C08115CF
:1028D00039E59307A8F4811548E5940708F063C02B
:1028E000C11586E5D80708F0A6CF8C2F0E948C155D
:1028F000C82FD0E0DC2FCC27CC27DF71D0621EC0E0
:1029000081152AE5920708F453C09056811590422C
:1029100008F091CF8D2F8F710E948C1590E0982F29
:10292000882788279F719C012C2BE901E7CFC55A86
:10293000D0E0CA58DE4FC881D0E0D064CE01DF912C
:10294000CF9108958370992721E030E002C0220FD3
:10295000331F8A95E2F7C695C69540E2C49FE00111
:102960001124C22BD32BDD68E9CFDC2FCC27C16F1C
:10297000D06AE4CFCE018370992721E030E002C015
:10298000220F331F8A95E2F7C695C69540E2C49F91
:10299000E0011124C22BD32BDA68D0CFD82FCC275B
:1029A000C46FD06ACBCFD82FCC27C06FD06AC6CF28
:1029B0008F700E948C1534E0D695C7953A95E1F753
:1029C000CF709C2FEC01D069B9CF0E94A1250E9445
:1029D000F413089582389105B9F1B0F4813391056B
:1029E00009F47DC048F48932910509F46DC08A323A
:1029F000910509F47BC008958533910509F45FC002
:102A00008933910509F10895833E9105D9F138F490
:102A1000803E910529F1823E910579F10895863E27
:102A20009105D9F1873E910509F43EC0843E910598
:102A300041F52091EA0321FF24C08091E90384FD40
:102A400019C087EE90E008952091E903237009F002
:102A50005AC02091EA0323FF14C089E290E0089550
:102A60002091E90320FD38C03091EA0330FF09C00E
:102A700024FF43C090E080E008952091E90322FD07
:102A8000F7CF08952091E90322FD3AC03091EA037F
:102A900030FD39C024FFF5CFEDCF2091E90323FFAE
:102AA000F0CF24FDE7CFCDCF2091E90323FD2EC049
:102AB0003091EA0331FFEECF84EE90E0089520914B
:102AC000E90325FFDECFC9CF2091E90325FD21C011
:102AD0002091EA0323FFD5CF89E390E0D2CF209164
:102AE000E90326FFCECF8AE290E008952091E90322
:102AF00026FFC7CF81E390E0089583EE90E008952C
:102B000082EE90E0089580EE90E0089586EE90E0E9
:102B1000089585E390E008959091E90392FF06C03F
:102B2000282F28712830F9F4877F846093FF06C02E
:102B3000282F28712831F1F4877E84612091EA03DF
:102B400020FF06C0382F38713830D9F4877F816074
:102B500021FF06C0282F28712831D1F4877E81619A
:102B600094FD877E0895282F24712430F9F68B7FF9
:102B70008860DCCF282F2471243101F78B7E886197
:102B8000DDCF382F3171313019F78E7F8860E0CF7B
:102B9000282F2171213121F78E7E8861E1CF0E949B
:102BA0004A1208950E9417178FE39CE90197F1F7E5
:102BB00000C000000E94171780E00E940C1680FFE2
:102BC00004C00E94CF150E94BC2908950E94D2150E
:102BD00008950E945112811102C00E94FE120E94AB
:102BE0005D12809394030E9467129093EA0380938E
:102BF000E9030E94E6150E9462120E94530D809123
:102C0000FE020E946B0D089508950E940416089517
:102C100008950E9408160895E82FF0E0EE0FFF1FB8
:102C2000EB50FC4F808191810895B0E0A0E0EBE192
:102C3000F6E10C94C2328EE593E00E94170785EF0F
:102C4000E82E83E0F82ED0E0C0E099E5C92E93E0AD
:102C5000D92E00E513E0DF93CF93DF92CF920E944D
:102C6000B00786E593E00E941707F70181919191E3
:102C70007F010E94FD089F938F931F930F930E94E3
:102C8000B0078EE493E00E94170721968DB79EB798
:102C900008960FB6F8949EBF0FBE8DBFC530D10504
:102CA000D1F6CDB7DEB7E8E00C94DE3280EA8A9543
:102CB000F1F7089500C008950E9456160895F894FB
:102CC000E82FE295EF70F0E031A1282F2F7081E01E
:102CD00090E001C0880F2A95EAF7982F90959323EA
:102CE00091A392A1892B82A378940895CF93DF9327
:102CF000C8E8D1E089918F3F11F00E945F1681E012
:102D0000CD38D807B9F7C9E7D1E089918F3F11F0E5
:102D10000E945F1681E0C838D807B9F7DF91CF91DC
:102D20000895AF92BF92DF92EF92FF920F931F939D
:102D3000CF93DF938C01D62EC62FD0E0CE018857DB
:102D40009E4F7C01FC0120812F3F09F44DC0F89477
:102D5000E22FE295EF70F0E031A12F7081E090E07A
:102D600001C0880F2A95EAF7932F982B91A392A17F
:102D70008095892382A378940E945A16E9E7F1E0AE
:102D800048E851E021E030E0B12CA12C61916F3F87
:102D9000A9F1A62FA295AF70B0E090968C9190E02B
:102DA0006F7002C0959587956A95E2F780FD26C001
:102DB000C901A82AB92A220F331F4E175F0731F71E
:102DC000F70180818F3F11F00E945F1661E0A1142E
:102DD000B10409F460E08D2D0E945C16CC0FDD1F5C
:102DE000C00FD11FB982A882DF91CF911F910F919F
:102DF000FF90EF90DF90BF90AF90089590E080E05B
:102E0000D8CF0E9476168AE0E5EFF3E0DF01982F35
:102E10001D929A95E9F7EBEEF3E0DF011D928A959A
:102E2000E9F785E00E9452170E9442080895AAE03F
:102E3000B0E0EDE1F7E10C94C5328E010F5F1F4F5A
:102E40008AE0F80111928A95E9F7F12C6F2DC801FB
:102E50000E949116F394F5E0FF12F8CF4AE050E09B
:102E6000B8018BEE93E00E94EF3221E0009709F465
:102E700020E0892B41F08AE0F801ABEEB3E001904D
:102E80000D928A95E1F745E065EF73E08BEE93E0F4
:102E90000E945317182F0E944508812F2A96E5E0BB
:102EA0000C94E1320895CF92DF92EF92FF921F933C
:102EB000CF93DF936C017B01C42F222349F081E083
:102EC000809397030E9471299093960380939503B2
:102ED0001091970311110AC010E0812FDF91CF915B
:102EE0001F91FF90EF90DF90CF9008958091950310
:102EF000909196030E948929059770F3D0E0CC0F3A
:102F0000DD1FAE01B601C7010E94EF32892B41F0EF
:102F1000AE01B601C7010E94FC3210929703DDCFCB
:102F200010E0FBCF0E94872C0E9452130E94942C29
:102F300008950E94992C0E9461130E94B72C089555
:102F40000E940A290E946D2C0E9436130E9492173B
:102F50000E9499170E944613FBCF80919E0380FF29
:102F60000DC06091070170E0660F771F6038710532
:102F700070F56115710569F1862F089581FF07C00D
:102F80006091070184E0689FB0011124EFCF609148
:102F9000070182FD0AC080919D038823A9F020913A
:102FA000060160910701821710F088E0ECCF869F40
:102FB000C001112433E0880F991F3A95E1F7622F81
:102FC00070E00E945B32D2CF68E070E0D5CF8FE72F
:102FD000089581E0089580919E0380FF0CC0609168
:102FE000030170E075956795759567956115710595
:102FF00049F1862F089581FF06C06091030170E0BA
:1030000075956795F3CF6091030182FD0BC0909198
:103010009C039923A1F0609102018091030196170E
:1030200038F0682F70E06038710500F38FE708957D
:10303000899FC001112470E00E945B32F4CF61E0EF
:1030400070E0D7CF81E00895803F31F40E94AD1742
:1030500081958093A2030895813F19F40E94AD17D2
:10306000F8CF823F31F40E94AD1781958093A10380
:103070000895833F19F40E94AD17F8CF893F29F4D2
:103080000E94EB178093A30308958A3F21F40E94C6
:10309000EB178195F7CF8B3F31F40E94EB178195A9
:1030A0008093A40308958C3F19F40E94EB17F8CF86
:1030B0009CE0980F953070F4845F990B21E030E02C
:1030C00001C0220F8A95EAF78091A003822B80939A
:1030D000A00308958D3F31F480919E038160809319
:1030E0009E0308958E3F21F480919E038260F7CF66
:1030F0008F3FB9F780919E038460F1CF4091A10387
:10310000803F59F48091A20387FF0DC01092A20363
:1031100041110BC010929D0308C0813F81F4809142
:10312000A20318169CF3442381F08091A30390918D
:10313000A403892B09F05AC010929C030895823F82
:1031400049F447FFF0CF1092A1038091A2038111AF
:10315000ECCFE0CF833F19F41416ACF3E4CF909199
:10316000A303893F29F41916F4F61092A303DBCFC9
:103170008A3F19F497FFD7CFF8CF9091A4038B3FE4
:1031800029F497FFD0CF1092A403CDCF8C3F19F430
:103190001916CCF3C8CF9CE0980F953090F4845F5B
:1031A000990B21E030E0B90102C0660F771F8A95C4
:1031B000E2F7CB0180959091A00389238093A0032F
:1031C000B2CF8D3F31F480919E038E7F80939E031A
:1031D000AACF8E3F21F480919E038D7FF7CF8F3F42
:1031E00009F0A1CF80919E038B7FF0CF089580914D
:1031F000940383FF7EC08CE993E00E9417078091BF
:10320000A0031F928F9387E993E09F938F930E946F
:10321000B00785E993E00E9417078091A103282F4A
:10322000082E000C330B3F938F9382E993E09F931A
:103230008F930E94B00780E993E00E941707809166
:10324000A203282F082E000C330B3F938F938DE899
:1032500093E09F938F930E94B0078BE893E00E94C6
:1032600017078091A303282F082E000C330B3F93E0
:103270008F9388E893E09F938F930E94B00786E82E
:1032800093E00E9417078091A403282F082E000CBA
:10329000330B3F938F9383E893E09F938F930E9428
:1032A000B00780E893E00E94170780919D031F926A
:1032B0008F938DE793E09F938F930E94B0078BE7E6
:1032C00093E00E94170780919E031F928F9388E7D7
:1032D00093E09F938F930E94B00785E793E00E944D
:1032E00017078DB79EB74C960FB6F8949EBF0FBECA
:1032F0008DBF0E9471299C019091A1038091A2032E
:10330000982B21F030939B0320939A039091A30371
:103310008091A403982B21F0309399032093980374
:103320008FE993E00E94A327089586E0EFE9F3E098
:10333000DF011D928A95E9F710929D0310929C037C
:1033400010929E030895FC01828181110EC0838139
:1033500081110BC08481811108C091E085818111A8
:1033600001C090E0892F8170089581E0FCCFA6E034
:10337000B0E0EDEBF9E10C94C73286E0EFE9F3E061
:10338000DE01119601900D928A95E1F71092A1034A
:103390001092A2031092A3031092A4038B819C812C
:1033A000892B89F080919A0390919B030E9489292F
:1033B000AC0190919D039923C9F180910801841774
:1033C000150608F440C08D819E81892B91F0809173
:1033D0009803909199030E948929AC0190919C03D4
:1033E000992309F471C0809104018417150608F42B
:1033F00079C0BE016F5F7F4F8FE993E00E94C128C3
:10340000811105C08FE993E00E94A31981110E94E8
:10341000F71886E0FE013196AFE9B3E001900D9216
:103420008A95E1F72696E3E00C94E33220910901B6
:103430008AE0289F900111242417350720F69F5F0A
:1034400090939D0302C09F3FD1F71B81112359F038
:103450000E94AD179FEF11160CF491E0899F802D0B
:1034600011248093A1031C81112359F00E94AD17F0
:103470009FEF11160CF491E0899F802D1124809309
:10348000A2033091A103332309F49DCF2091A2031D
:10349000222309F498CF45EB3403C001112499236A
:1034A00059F09093A10345EB240390011124332399
:1034B00039F03093A20387CF81E08093A103F3CF4B
:1034C00081E08093A2037FCF209105018AE0289FAD
:1034D000900111242417350708F08BCF9F5F90933C
:1034E0009C0302C09F3FD1F71D81112359F00E9418
:1034F000EB179FEF11160CF491E0899F802D11249A
:103500008093A3031E81112359F00E94EB179FEFB4
:1035100011160CF491E0899F802D11248093A4034F
:103520003091A303332309F464CF2091A403222311
:1035300009F45FCF45EB3403C0011124992359F0FE
:103540009093A30345EB240390011124332339F016
:103550003093A4034ECF81E08093A303F3CF81E0A7
:103560008093A40346CF86E090E00E94053308953F
:10357000682F86E090E00E94133308958091FF0346
:103580000E94B81A0895EFEFF3E08081847081669D
:1035900080830E94B81A08958091FF0386958695CE
:1035A000869508950E945112811104C00E94FE1256
:1035B0000E94C31A0E94B31A8093FF03883620F03A
:1035C000877080668093FF039091FF03892F81703D
:1035D00090FF04C0892F8695869586950E94451C8C
:1035E00008958091FF03982F9695969596959C3017
:1035F00040F49F5F990F990F990F8770892B8093E3
:10360000FF038091FF0381608093FF030E94B81A3B
:103610008091940380FF11C08091FF038695869569
:1036200086951F928F9386E294E09F938F930E94DA
:10363000B0070F900F900F900F908091FF03869529
:10364000869586950E94451C08958091FF03982FCA
:10365000987F79F088508093FF03887F91E009F488
:1036600090E08091FF0390FB80F98093FF030E941C
:10367000B81A8091940380FF11C08091FF03869552
:10368000869586951F928F938EE094E09F938F93FB
:103690000E94B0070F900F900F900F908091FF0342
:1036A0008695869586950E94451C08958091FF0316
:1036B00080FD1FC081608093FF03813019F489E091
:1036C0008093FF038091FF030E94B81A80919403B6
:1036D00080FF08C086EE93E09F938F930E94B0070F
:1036E0000F900F908091FF038695869586950E9496
:1036F000451C08958091FF0380FF14C08E7F809346
:10370000FF030E94B81A8091940380FF08C083EDE4
:1037100093E09F938F930E94B0070F900F9080E0EB
:103720000E94451C0895CF93C091FF03C170809102
:10373000940380FF0CC01F92CF9388EF93E09F9378
:103740008F930E94B0070F900F900F900F90CC2393
:1037500021F00E947A1BCF9108950E94561BFBCF47
:103760009091FF03892F8695869586958F5F8F713F
:1037700097708D3088F5880F880F880F892B80937C
:10378000FF038091FF03887F91E009F490E080912E
:10379000FF0390FB80F98093FF030E94B81A809189
:1037A000940380FF11C08091FF03869586958695CE
:1037B0001F928F938FEB93E09F938F930E94B0079C
:1037C0000F900F900F900F908091FF038695869534
:1037D00086950E94451C08959093FF03D2CF8D30AB
:1037E00008F08CE09091FF039770282F220F220F92
:1037F000220F922B9093FF03987F21E009F420E0A1
:103800009091FF0320FB90F99093FF030E94451CC9
:1038100008950E94EF1B8091FF030E94B81A08953B
:103820009C01FB018281882349F12D3BFCE53F0788
:10383000C9F040F42B3BECE53E0769F02C3B3C45DE
:1038400079F008952F3B9CE5390791F070F0203C0A
:103850003C4589F008958CE00E94091C80E00895A1
:1038600080E0FACF0E94251BF9CF0E94F11AF6CF13
:103870000E94931BF3CF0E94B01BF0CF81E008950C
:10388000279A2F9808952F9808958F929F92AF921C
:10389000BF92EF92FF920F931F93CF93DF93C82FA6
:1038A0008D30C0F5811137C080918000877F809373
:1038B00080000E94431CA0918600B09187002C2FAD
:1038C00030E00E949E322CE030E040E050E00E9468
:1038D0006F3289019A0180918600909187006CE097
:1038E00070E00E94473260177107D8F0C80169E0A4
:1038F00070E00E94473270938D0060938C00DF91DE
:10390000CF911F910F91FF90EF90BF90AF909F903C
:103910008F900895CCE08091800088608093800033
:10392000CACF8091860090918700E0908600F09049
:103930008700E0918600F0918700C6E0D0E0BE01EC
:103940000E944732060F171F211D311D48015901E2
:1039500085E0880C991CAA1CBB1C8A95D1F7C7016D
:10396000BE010E9447329F0150E040E0260F371F02
:10397000411D511DC501B4010E946F3249015A0118
:10398000E0918600F0918700CA01B9010E942B32B4
:103990009B01AC01DF010E94AD329B01AC01C5016E
:1039A000B4010E942B322FE0969587957795679505
:1039B0002A95D1F7009186001091870030E020E031
:1039C000061717072807390708F095CF609186007A
:1039D0007091870090CF08950E94401C8AE08093E8
:1039E000800089E1809381008FEF9FEF90938700A3
:1039F000809386000E94D21A089583E290E00E948C
:103A00000533853289F484E290E00E9405338530E5
:103A100059F485E290E00E94053391E0853109F088
:103A200090E0892F8170089580E0FCCFCF93C82F5C
:103A30006FEF811165E283E290E00E9413336FEF34
:103A4000C11165E084E290E00E9413336FEFC11171
:103A500065E185E290E00E941333CF9108950895C7
:103A600086E290E00E940533682F70E090E080E0ED
:103A700008950895CF93C62F0E94391D6C2F86E2BA
:103A800090E00E941333CF91089580E00E94161DAC
:103A900060E070E0CB010E943A1D0E941F250E9449
:103AA000FE2581E00E94161D08950E942F1D0E9490
:103AB000301D0E94391D0E94FD1C811102C00E9410
:103AC000451D0895CF93FB01C281CC2309F19C01D0
:103AD00022513F452031310520F582510E940E26AA
:103AE000C0E08C2FCF91089581E00E94820D43E0C9
:103AF00062E081E00E943808F3CF81E00E948E0DE1
:103B000043E062E081E00E943808EBCF82E0F6CF2C
:103B10008031FFE59F0789F381319F45B9F3C1E00B
:103B2000E0CF8031EFE59E07F9F281319F45C9F67C
:103B300082E0DBCF2FEFFC0120830895CF93DF934A
:103B4000EC018881893029F08A3079F0DF91CF91BA
:103B500008950E94CC1A2FEF829FC00111246CE0BF
:103B600070E00E9447326983F1CF1982EFCFFC01E8
:103B70002081293061F48181FCE08F9FC0011124F4
:103B80006FEF70E00E944732862F0E94EF1B08956E
:103B9000EF92FF920F931F93CF93DF93EC01062FC9
:103BA000DC01ED91CD01E150E33108F0ACC0F0E073
:103BB000EB5AFC4C0C94913219828AE08A83602F74
:103BC000CE010E94842ACDB7DEB7E6E00C94E03245
:103BD0008981823069F0833071F08130D9F40E949C
:103BE0007D290E9497326A837B838C839D83E7CFF4
:103BF0000E94301DF6CF7E0110E0812F0E940C162E
:103C0000F701928383831F5FF2E0EF0EF11C153002
:103C1000A1F7D5CF602FCE010E949A1DD0CF898108
:103C20008230C1F76A817B818C819D810E949732AD
:103C30000E943A1DC4CF4B816A8189810E94E12490
:103C40009827892798279D838C83B9CF2C813D8124
:103C50003227232732274B816A8189810E940325DD
:103C6000AECF0E941F25ABCF0E94B71DA8CF0E94E8
:103C70009E1DA5CF0E94BE1AA2CF0E94AF258983A8
:103C80009ECF0E94B1259827892798279A838983F8
:103C900096CF6B8170E089819A81AE014C5F5F4F56
:103CA0009827892798270E94B42589CF6B8170E0D7
:103CB00089819A81AE014C5F5F4F982789279827A9
:103CC0000E94D9257CCF0E94FE2579CF0E94CF2467
:103CD000D6CF6B8170E089819A81AE014C5F5F4FD6
:103CE0009827892798270E94592569CF6B8170E012
:103CF00089819A81AE014C5F5F4F98278927982769
:103D00000E947D255CCF8FEF888359CFCF93DF93BF
:103D1000EC01FB018281882309F464C1C330FDE515
:103D2000DF07E0F5CA3F9CE5D90730F49E01225039
:103D30003C4524313105D8F50E9467129093EA037F
:103D40008093E903C231ECE5DE0709F41FC108F0F6
:103D50006EC0C9308CE5D80709F4F2C008F03FC046
:103D6000C530ECE5DE0709F4DBC058F5C3308CE55F
:103D7000D80709F4CDC008F0CFC08091E903816075
:103D8000C230DC4509F4AEC08091E9039091EA03AA
:103D90000E9475120E94000D80E009C0C53AEDE551
:103DA000DE0751F238F4C1369DE5D90729F2DF91DB
:103DB000CF9108959E012D5A3D4523303105B8F726
:103DC000BBCF8091E9038062C730FCE5DF0709F4CF
:103DD00089C008F4B1C08091E903806483C0CD300C
:103DE0009CE5D90709F4BAC070F48091E9038E7F8D
:103DF000CB30FCE5DF0709F475C008F4A7C080915B
:103E0000E9038D7F6FC0CF309CE5D90709F4B6C0B8
:103E100008F4A8C0C031FCE5DF0709F4B3C0C13124
:103E2000DC4509F0B1CF8091E9038F7B5BC0CF3FC8
:103E30009CE5D90709F4B4C098F5CA3FFCE5DF0753
:103E400009F472C0B8F4C4319CE5D90709F4B6C0CE
:103E500008F4A2C0C531DC4509F096CF8091E90392
:103E600082FB992790F921E0922790FB82F990FB41
:103E700083F938C0CC3F8CE5D80709F477C008F443
:103E800057C0CD3FECE5DE0709F474C08091EA032A
:103E90008360CE3FDC4509F077CF8093EA0374CF8F
:103EA000C1368DE5D80709F496C068F4C130EDE558
:103EB000DE0709F48CC008F477C0C230DD4509F094
:103EC00063CF80E085C0CD3A9DE5D907E9F068F47D
:103ED0009091E903892F8E7F90FF8160C53ADD457F
:103EE00009F052CF8093E9034FCFCE3A8DE5D80742
:103EF00089F1CF3ADD4509F047CF9091EA03892F48
:103F0000877F93FF8860C9CF8091EA038860C5CF1F
:103F10008091E9038260E6CF8091E9038460E2CF7B
:103F20008091E9038860DECF8091EA038160B5CF9C
:103F30008091EA038260B1CF8091E9038061D2CFA2
:103F40000E94000D8091E9038068CCCF8091E90345
:103F50008C60C8CF8091EA03877F9FCF8091E9036F
:103F60008B7FC0CF8091E903877FBCCF8091EA032C
:103F70008E7F93CF8091EA038D7F8FCF8091E9036D
:103F80008F7EB0CF8091E9038F7DACCF0E94000D72
:103F90008091E9038F77A6CF8091E903837FA2CF39
:103FA0008091EA038C7F79CF8091EA03982F9095D6
:103FB00091708E7F892B90FB81F96FCF0E94000D4D
:103FC0009091E903892F97FB87F980588BCF81E087
:103FD0000E940113D9CE9091E903892F8F7E94FF1F
:103FE000806180CF81E0E3CEB0E0A0E0EAEFFFE1C6
:103FF0000C94C332E82FF0E0E25CFB4FD490282F02
:1040000026952695269530E0F901E252FB4F049162
:10401000877010E0082E02C0159507950A94E2F704
:1040200001701127F901E253FB4FE490F12C082EA7
:1040300002C0F594E7940A94E2F791E0E922FF24A4
:10404000F901E254FB4FC491D0E002C0D595C79569
:104050008A95E2F7C170DD270115110519F081EE8F
:104060000E949C09E114F10419F086EE0E949C095B
:104070008D2D0E94A30AE114F10419F086EE0E942E
:10408000320A0115110519F081EE0E94320ACD2B7A
:1040900019F08CE20E94A30ACDB7DEB7E7E00C94DA
:1040A000DF32EF92FF920F931F93CF93DF93EC01D8
:1040B000162F0AE08881882309F454C0813009F062
:1040C0004EC08981813099F47E0122E0E20EF11C1C
:1040D0008A810E94A30AE7012196812F815050F323
:1040E000EFE9FFE03197F1F700C00000F7CF823031
:1040F00041F47E0182E0E80EF11C8A810E949C0955
:10410000EACF833041F47E01E2E0EE0EF11C8A81B9
:104110000E94320AE0CF843011F02196DDCF2A814F
:10412000229690E080E0AE014F5F5F4F2053330B4B
:104130002A30310548F0019778F2EFE9FFE0319736
:10414000F1F700C00000F7CF089FB001099F700D84
:104150001124C901860F971F2981EA01E4CF0E942B
:10416000F41FBACFCDB7DEB7E6E00C94E0328FE8AB
:1041700091E00197F1F700C0000008950E94B9078F
:104180000895FF920F931F93CF93DF9383E0809363
:10419000A80300EA11E0CDE9D1E0AE01D80121E0A9
:1041A00030E08D91E82FE295EF70F0E0F1A08F7094
:1041B000B90101C0660F8A95EAF7962F90959F2165
:1041C00091A382A1862B82A3FA018191AF01E82FEE
:1041D000E295EF70F0E0F1A08F70B90101C0660FB9
:1041E0008A95EAF7962F90959F2191A382A1862B1D
:1041F00082A3F1E0A33ABF07A1F60E94B720609125
:10420000A8034CEA53E0FA018E2F841B861728F08E
:10421000CDB7DEB7E5E00C94E132D8012D918D01E8
:10422000A22FA295AF70B0E090968C9190E02F7085
:1042300002C0959587952A95E2F781709991A92FEB
:10424000A295AF70B0E090962C9130E09F7002C0C4
:10425000359527959A95E2F790E020FD92E0892B1D
:104260008193D2CFB0E0A0E0E8E3F1E20C94C23257
:10427000F12CE12C84E0C82ED12C8091A803F816F3
:1042800030F08E2DCDB7DEB7E8E00C94DE320F2D86
:1042900010E0F801E056FE4F8081E82FE295EF70C4
:1042A000F0E0E0A1F0E08F7002C0F595E7958A9507
:1042B000E2F7E170D801A356BE4F2C91A22FA29530
:1042C000AF70B0E090968C9190E02F7002C0959501
:1042D00087952A95E2F780FD40C080E08E2BD801BB
:1042E000A455BC4FEC919E2F93709817A1F1EE0F3F
:1042F000EE0FE82BEC93EF70F0E0E357FE4FE80190
:10430000C755DC4F80819881890F888320E08430F5
:104310005CF0F801EB55FC4F80818F5F808360E09B
:104320008F2D0E94BE2021E088818D3F5CF4F80132
:10433000EB55FC4F80818150808361E08F2D0E947E
:10434000BE2021E08881082E000C990BB6010E9446
:104350005B328883E22AF39490CF82E0BFCF8091D2
:1043600002011F928F93809103011F928F9380917E
:1043700006011F928F93809107011F928F93809166
:1043800008011F928F93809109011F928F938EEEE7
:1043900094E09F938F930E94B0078DB79EB70E96BF
:1043A0000FB6F8949EBF0FBE8DBF0895883228F5D2
:1043B0008E3108F072C08B3041F130F4873009F44F
:1043C000CFC08DE496E0E0C0833109F45FC0843152
:1043D000C1F78FE696E00E9417078091B303882308
:1043E00009F4FEC01092B3031092B2031092B1030D
:1043F0001092B0031092AF0320C08F3409F4C7C0ED
:10440000D8F5893231F38833E1F682E796E00E94ED
:1044100017070E94AF211F9281E08F931F9288E0BF
:104420008F938BE695E09F938F930E94B0070F9038
:104430000F900F900F900F900F902091B3032223B5
:1044400009F4C9C08091AF039091B003009711F4B3
:1044500083EA91E09F938F931F922F938BE396E0D3
:104460009F938F930E94B0070F900F900F900F9023
:104470000F900F9081E00895813509F49CC008F4F5
:104480009CC0823509F09DCF81E082C081E696E034
:104490000E9417070E94AF21D0CF8D518093B303A4
:1044A000833009F442C058F48130C1F08230A1F168
:1044B0001092B3038EE596E00E9417071BC085306B
:1044C00009F445C0D8F1863099F782E091E09093E5
:1044D000B2038093B1038BEE91E008C089E091E0D4
:1044E0009093B2038093B10387EA91E09093B00375
:1044F0008093AF038091B303882309F49ECF1F926A
:104500008F938AE596E09F938F930E94B0070F9058
:104510000F900F900F9091CF88E091E09093B203AD
:104520008093B10380EB91E0E1CF87E091E090933D
:10453000B2038093B1038CEB91E0D8CF86E091E099
:104540009093B2038093B10389EC91E0CFCF83E0E5
:1045500091E09093B2038093B10388ED91E0C6CFD0
:1045600081E08093090184E1809308018AE08093CF
:1045700007018EE18093060188E08093030188E2C1
:104580008093020180E596E00E94170756CF8AE0EB
:10459000E091B103F091B2033097D1F02081082E61
:1045A000000C990B820F911D8F3F910541F03CF05B
:1045B0008FEF808307C08FEFEBCF86EFE9CF97FFB8
:1045C000F8CF108280811F928F9387E496E09BCF73
:1045D00084E496E0D9CF87E396E00E9417074ACF9C
:1045E00080E00895CF93C82F1F928F9388E896E0BC
:1045F0009F938F930E94B00781E001C0880FCA95F6
:10460000EAF70E94530D0E94000D0F900F900F903B
:104610000F90CF910895B0E0A0E0E1E1F3E20C94B7
:10462000C332EBEFE80FEF3308F05AC1F0E0E8597E
:10463000FC4C0C9491320E9462121F928F938BE675
:104640009AE09F938F930E94B0070E945D1283FBB4
:10465000992790F91F929F9382FB992790F91F92B7
:104660009F9381FB992790F91F929F93982F9170A8
:104670001F929F931F928F9382E29AE09F938F9352
:104680000E94B0070E94671293FB222720F91F9215
:104690002F9387FB222720F91F922F9386FB222737
:1046A00020F91F922F9385FB222720F91F922F9329
:1046B00084FB222720F91F922F9383FB222720F9C6
:1046C0001F922F9382FB222720F91F922F9391FB99
:1046D000222720F91F922F93292F21701F922F93A9
:1046E00081FB222720F91F922F93282F21701F92E0
:1046F0002F939F938F9383E299E09F938F930E94D0
:10470000B0078DB79EB78A960FB6F8949EBF0FBEBE
:104710008DBF0E94B31A982F9695969596951F92E5
:104720009F93982F91701F929F931F928F9380EF6A
:1047300098E09F938F930E94B0078DB79EB708961D
:104740000FB6F8949EBF0FBE8DBF81E01CC08BE2F8
:104750009BE00E9417070E94FE12F7CF8BE397E0C1
:104760000E941707F2CF80919403807F8093940377
:1047700084E197E00E94170787E29BE00E941707F9
:1047800081E08093B403CDB7DEB7E7E00C94DF326D
:104790008BE09BE00E9417070E945708D6CF9091AC
:1047A0009403892F8E7F90FF81608093940380FF14
:1047B00003C08FEF9AE0D4CF82EF9AE00E941707F0
:1047C00080919403817F80939403BFCF9091940351
:1047D000892F8D7F91FF82608093940381FF08C0B1
:1047E00085EE9AE00E941707809194038160EBCFD9
:1047F00087ED9AE0B5CF90919403892F8B7F92FF3C
:1048000084608093940382FF03C088EC9AE0EACF2F
:1048100088EB9AE0A5CF90919403892F877F93FF2F
:1048200088608093940383FF03C08CEA9AE0DACF18
:104830008FE99AE095CF80E092E09F938F9381E19A
:1048400097E09F938F930E94B0070F900F900F9067
:104850000F907BCF0E947D29062FF72EE82ED92EB0
:10486000C091E903C7FBCC27C0F91091E803D091B0
:1048700016010E944327DF92EF92FF920F931F923F
:10488000CF931F921F931F92DF931F928F938DE8F8
:1048900096E09F938F930E94B0078DB79EB70E96B8
:1048A0000FB6F8949EBF0FBE8DBF4FCF0E94000D74
:1048B0009091E903892F97FB87F980588093E9034A
:1048C00087FF03C085E99AE04BCF8AE89AE048CF9A
:1048D00080E00E94F22239CF8953FBCF8D51F9CF6E
:1048E00088E89AE00E94170780E04DCF80E00895A5
:1048F0000E9476240895CF93C82F8091B40381300D
:10490000C1F0882339F0823009F444C01092B40316
:1049100080E00DC00E9450118232D1F78C2F0E948E
:10492000762481111BC08C2F0E940B238170CF91A4
:1049300008950E945011823289F38C2F0E947824AE
:1049400081111BC0C431D9F060F4CB3071F0C0319B
:10495000D1F082E896E00E94170713C081E090E052
:10496000E5CFC93261F0C833A1F784E197E00E9436
:10497000170784E896E00E94170781E0D7CF1092CE
:10498000B40380E0D3CF82E08093B40388E30E9435
:10499000D621F3CF8C2F0E94D62181E0C8CF84E0AE
:1049A000089550E0440F551F9EE1699F400D511D31
:1049B000112496E9899F400D511D1124CA01879643
:1049C00008950F931F93CF93DF938430C8F465301D
:1049D000B8F44F30A8F40E94D1248C010E94053312
:1049E000C82FD0E0DC2FCC27C80101960E940533E8
:1049F0009E01282BC901DF91CF911F910F9108953E
:104A000090E080E0F8CF0F931F93CF93DF93122FA6
:104A1000032F843078F4653068F44F3058F40E94E6
:104A2000D124EC01602F0E941333612FCE01019637
:104A30000E941333DF91CF911F910F910895B0E041
:104A4000A0E0E5E2F5E20C94C0328CEAC82E80E0EA
:104A5000D82ED0E0C0E0760110E01CC00E94CA074A
:104A600021E030E08C171D0621F01CF0F5012591A6
:104A70003491402F612F8C2F0E94032582E0A80ED5
:104A8000B11C0F5F0F3051F71F5F8EE1E80EF11C74
:104A9000153019F0570100E0E1CF219686E9C80EE4
:104AA000D11CC430D105B9F6CDB7DEB7EAE00C941D
:104AB000DC32EF92FF920F931F93CF93DF93EC01C1
:104AC0008A017C01E60EF71ECE018796CE15DF0522
:104AD00029F4CDB7DEB7E6E00C94E032C83522E029
:104AE000D20740F40E940533F80180830F5F1F4F07
:104AF0002196EACFF8011082F9CFB0E0A0E0E3E818
:104B0000F5E20C94C2327C016A018C01060F171F7A
:104B1000EC01CE018796C017D10729F4CDB7DEB7D7
:104B2000E8E00C94DE32C83522E0D20740F4FE0102
:104B3000EE19FF09EC0DFD1D60810E9413332196D3
:104B4000E8CF462F843040F4753030F46F3020F4D5
:104B5000672F0E94E124089590E080E0089580E1AD
:104B6000089581E891E00895EF92FF920F931F93CB
:104B7000CF93DF93EC018A017C01E60EF71ECE0194
:104B800081589D4FCE15DF0529F4CDB7DEB7E6E09D
:104B90000C94E032C13821E0D20740F40E94053382
:104BA000F80180830F5F1F4F2196E9CFF801108233
:104BB000F9CFB0E0A0E0EFEDF5E20C94C2327C0159
:104BC0006A018C01060F171FEC01CE0181589D4F21
:104BD000C017D10729F4CDB7DEB7E8E00C94DE3278
:104BE000C13821E0D20740F4FE01EE19FF09EC0DB7
:104BF000FD1D60810E9413332196E7CFCF93DF9391
:104C0000CFE7D2E060E0CE010E9413332196C115B8
:104C100084E0D807B9F7DF91CF910895A4E0B0E020
:104C2000E4E1F6E20C94C332F82E8FE08F1548F1E0
:104C30008FEF93E00E940533811123C00FE712E04C
:104C4000F11023C019821A821B821C82DD24D394A6
:104C500078018FEFE81AF80AC8010E9405338983AA
:104C60001A82882371F09FEF980F9330D8F48A83CB
:104C7000D9820E5F1F4FC7010E9405338B838111BC
:104C800012C02496E7E00C94DF32011584E0180787
:104C9000C1F3C8010E940533811101C0FA940F5F6E
:104CA0001F4FCECF870160E0CE0101960E945120B8
:104CB000CFCFCF93DF93EB0186319C4511F50E9456
:104CC00050119A81992399F08A7A91E009F490E041
:104CD0009093B503811109C089E20E9428110E94B6
:104CE000911180E0DF91CF91089585E3F6CF809117
:104CF000B503811104C089E20E943011F0CF85E331
:104D0000FBCF81E0EFCF0F931F93CF93DF93C42F9F
:104D1000D22FFC0182818823C9F04093B8030E94FE
:104D200071299093B7038093B60380E28C0F88308B
:104D300040F4C77081E001C0880FCA95EAF70E946D
:104D4000AC0ADF91CF911F910F9108951091B80394
:104D5000141332C08091B6039091B7030E94892941
:104D6000883C910548F5C0E2CD0F1D17B9F080E2EF
:104D7000810F883040F4177081E001C0880F1A95C8
:104D8000EAF70E94B30AC83048F481E09D2F97707B
:104D900001C0880F9A95EAF70E94AC0A802F0E9402
:104DA000A30AC83070F6D77081E001C0880FDA9589
:104DB000EAF70E94B30AC5CF80E28C0F883008F66C
:104DC000C77081E001C0880FCA95EAF7F2CF0F9350
:104DD0009C01CB01233F4CE5340759F1A8F4283D51
:104DE000FCE53F0701F1293D4CE53407D1F1273DB2
:104DF0003C4591F406E221EE41EE67ED7CE50E9430
:104E0000832680E00F910895253FFCE53F07E9F0F8
:104E1000B0F0263F3C45F9F0FC018281882339F14E
:104E20001092B803EFCF07E225EE45EE68ED7CE582
:104E3000E6CF06E221EE40EE63EF7CE5E0CF07E24D
:104E400025EE44EE64EF7CE5DACF06E221EE42EE99
:104E500065EF7CE5D4CF07E225EE46EE66EF7CE514
:104E6000CECF08E221E045EE69ED7CE5C8CF81E0D8
:104E7000C9CF9093D9028093D80208959093BE032E
:104E80008093BD030895E091BD03F091BE03309778
:104E900029F00190F081E02D0995089580E00895B2
:104EA000EF92FF920F931F93CF93DF93EC01E0916A
:104EB000BD03F091BE03309709F440C08091160104
:104EC000882341F08091E90387FF04C088818983AA
:104ED00086E088830280F381E02DCE0109958091E0
:104EE000940382FF2BC080FF04C084E49BE00E94F7
:104EF000170710E000E08EE3E82E8BE0F82E80919B
:104F0000940380FF0EC0FE01E00FF11F80811F920D
:104F10008F93FF92EF920E94B0070F900F900F9027
:104F20000F900F5F1F4F0830110549F780919403D0
:104F300080FF04C08CE39BE00E941707CDB7DEB76B
:104F4000E6E00C94E032E091BD03F091BE033097AF
:104F500039F022E0DC012C930480F581E02D0995E5
:104F600008952091BB033091BC032817390771F0D5
:104F70009093BC038093BB03E091BD03F091BE030B
:104F8000309721F00680F781E02D09950895209152
:104F9000B9033091BA032817390771F09093BA0317
:104FA0008093B903E091BD03F091BE03309721F0E7
:104FB0000084F185E02D09950895FC0132968091D9
:104FC0001601882321F08091E9039EE187FF96E096
:104FD00080E0915008F4089521912223D1F38F5F4E
:104FE000F8CF662301F1209116012223F1F02091E0
:104FF000E90327FF1AC0462F4695469546954E3140
:1050000090F4677021E030E002C0220F331F6A95F0
:10501000E2F7840F911DFC01828190E0282339235F
:1050200081E0232B69F480E00895FC013296089614
:105030002191261721F0E817F907D1F7F4CF81E085
:1050400008959C01FC0132969FEF80E04191461744
:1050500051F09F3F19F4411101C0982F8F5F8630A6
:10506000A9F79F3F09F40895290F311D97FD3A953F
:10507000F90162830895FC01329608962191261366
:1050800003C0DF0111971C92E817F907B9F70895DB
:10509000E62FE695E695E695EE3170F4E80FF92FE8
:1050A000F11D677021E030E001C0220F6A95EAF738
:1050B0008281822B828308958091940380FF0CC0AB
:1050C0001F926F9384E79BE09F938F930E94B0079A
:1050D0000F900F900F900F900895E62FE695E695AC
:1050E000E695EE3178F4E80FF92FF11D677021E0B5
:1050F00030E001C0220F6A95EAF7209582812823CB
:10510000228308958091940380FF0CC01F926F93B7
:1051100086E59BE09F938F930E94B0070F900F90BE
:105120000F900F90089520911601222339F02091BD
:10513000E90327FF03C00E94482808950E94212800
:10514000089520911601222339F02091E90327FFC9
:1051500003C00E946D2808950E943B280895FC0119
:10516000329680911601882351F08091E90387FFE0
:1051700006C08EE1DF011D928A95E9F7089586E069
:10518000F9CF46E050E00E94EF3221E0892B09F48C
:1051900020E0822F089508950E94CB280895811160
:1051A00006C081E08093BF030E94CC28089582E06E
:1051B000F9CF83E08093BF030E94CC2808950E941A
:1051C000CF28089581E08093BF030E94CC280895E2
:1051D0000E94E2280895089508950E94EC280895F9
:1051E000089508950E94EB280895CF930E94F02817
:1051F0000E9417170E94F128C0E08C2F0E940C1605
:10520000892B31F4CF5FC530C1F780E0CF9108958D
:1052100081E0FCCF85B7806885BF85B7806885BF92
:1052200008951F921FB61F9211248F939F93AF93DF
:10523000BF938091C003811113C0809100049091AD
:105240000104A0910204B09103044196A11DB11D77
:105250008093000490930104A0930204B09303048C
:10526000BF91AF919F918F911F901FBE1F90189576
:1052700080910804843031F10E94D6081092C00356
:1052800088E190E020E40FB6F894A8958093600040
:105290000FBE2093600083B7817F846083BF83B794
:1052A000816083BF7894889583B78E7F83BF0FB664
:1052B000F894A895809160008861809360001092B6
:1052C00060000FBE08950E94000D0E94DE08089540
:1052D00082E084BD93E095BD9AEF97BD80936E0008
:1052E00008952FB7F8948091000490910104A09143
:1052F0000204B09103042FBF08952FB7F894609172
:1053000000047091010480910204909103042FBF66
:1053100008959C014FB7F894809100049091010486
:10532000A0910204B09103044FBF821B930B089518
:1053300078941F921FB61F9211248F939F93AF935F
:10534000BF938091000490910104A0910204B09158
:1053500003040196A11DB11D8093000490930104E4
:10536000A0930204B0930304BF91AF919F918F91DA
:105370001F901FBE1F90189581E08093E00080E28F
:105380008093D8001092C9008FE19EE40197F1F755
:1053900000C0000087E090EBDC0180931104909343
:1053A0001204A0931304B093140488E19CE00FB698
:1053B000F894A895809360000FBE90936000FFCF93
:1053C00088E19CE00FB6F894A895809360000FBE2A
:1053D00090936000FFCF8091E703089508959C01AA
:1053E00084E08093E9009FEF8091E800915085FD73
:1053F00006C085ED8A95F1F700009111F5CF8091F7
:10540000E80085FF0CC050E040E066E070E0C901B4
:105410000E94562D8091E8008E778093E8000895D1
:10542000CF93DF93EC01809116018823B1F1809135
:10543000E90387FF32C060E284E08093E9008FEFE8
:105440009091E800815095FD06C095ED9A95F1F791
:1054500000008111F5CF8091E80085FF1BC080918D
:10546000160170E050E040E0811104C050E040E0DF
:1054700068E070E0CE010E94562D8091E8008E77A2
:105480008093E80080E2FE01A7ECB3E001900D926A
:105490008A95E1F7DF91CF91089568E081E0CDCF63
:1054A0008093C3037093C5036093C4038091080481
:1054B0008430F9F48093E9008FEF9091E8008150F7
:1054C00095FD06C095ED9A95F1F700008111F5CF95
:1054D0008091E80085FF0DC050E040E063E070E09F
:1054E00083EC93E00E94562D8091E8008E778093A4
:1054F000E8000895BC0184E00E94502A0895BC0190
:1055000083E00E94502A0895CF93FC01603221F578
:1055100080910804843001F5C091E900CF7020919A
:10552000EC00922F917020FD90E8C92B82E08093CF
:10553000E9008091E80080FF0CC050E040E060E2AC
:1055400070E0CF010E94562D8091E8008E77809305
:10555000E800CF70C093E900CF91089586EA9BE000
:105560000E94170780910704811109C00E94352FFE
:105570000E94922F8091E20084608093E20008955F
:1055800082EA9BE00E9417071092070408958EE9B3
:105590009BE00E9417070E94E22808958AE99BE099
:1055A0000E9417076091040481E0611101C080E04E
:1055B0000E94D928089586E99BE00E9417079091E0
:1055C000080481E0943009F080E0609104040E94B6
:1055D000DF2808952091C2032F5F822F62E30E948B
:1055E0003B32992319F02093C20308951092C2030D
:1055F0008091C6038823F1F0809108048430C1F4BF
:105600009091E9009F702091EC00822F817020FD25
:1056100080E8892B95E09093E9009091EB0090FF52
:1056200004C09091EE0097FD08C08F708093E90050
:105630001092C60308951092F1009091E80095FD34
:10564000FACF9091E80090FFF0CF9091E8009E771C
:105650009093E800EACF42E061EC81E00E94B12E35
:1056600042E261EC84E00E94B12E42E261EC82E011
:105670000E94B12E42E260EC83E00E94B12E42E231
:1056800061EC85E00E94B12E9091080481E0943095
:1056900009F080E0609104040E94CF280895809171
:1056A0000A04833009F463C030F48130E1F18230C0
:1056B00009F4A0C008958A3009F48CC08B3009F435
:1056C00071C0893009F052C080910904813209F01B
:1056D0004DC080910D0490910E04009719F002972F
:1056E00009F044C08091E800877F8093E8008091B2
:1056F000E80082FF37C09091F3008091F20002979A
:1057000031F48091F100813011F0863021F48091E4
:10571000F1008093E7038091E8008B778093E800A5
:105720000E94E52E23C080910904813AF9F480910A
:10573000E800877F8093E80080910D0490910E042B
:10574000892B61F460E287EC93E070E00E94F42D15
:105750008091E8008B778093E800089560E090E006
:1057600080E0F3CF809108048111C1CF089580912A
:105770000904813AD9F780910D0490910E04892B88
:10578000A9F78091E800877F8093E8008091E80086
:1057900080FFFCCF809116018093F1008091E8009A
:1057A0008E77BCCF80910904813201F780910D047E
:1057B00090910E04892BD1F68091E800877F809329
:1057C000E8000E94E52E80910B04809316010E9450
:1057D000000D089580910904813241F68091E8001E
:1057E000877F8093E8000E94E52E80910C048093CF
:1057F000E803089580910904813A09F0B7CF8091B8
:10580000E800877F8093E8008091E80080FFFCCF6C
:105810008091E803C1CF9FB7F8941092C6039FBF51
:1058200090910804943009F048C02091E9002F704D
:105830003091EC00932F917030FD90E8922B25E091
:105840002093E9002091EB0020FF34C02091EE006E
:1058500027FF30C02091C103222321F02091E800CE
:1058600025FF28C01092C10326E03091E80035FFE3
:1058700014C08093F1008091E80085FD27C08091DD
:10588000E80080FFFCCF8091E8008E778093E800ED
:105890009F709093E90080E00895309108043430BF
:1058A00049F43091EB0035FD05C0215041F481E011
:1058B0008093C1039F709093E9008FEF0895EFE903
:1058C000FFE03197F1F700C00000CFCF8FB7F89419
:1058D00021E02093C6038FBFDBCF84B7877F84BFCF
:1058E0000FB6F894A895809160008861809360005D
:1058F000109260000FBE80E890E00FB6F89480939D
:105900006100909361000FBE0E94E82808950E94F4
:10591000352F0E94922FE2EEF0E080818460808338
:1059200078940E94103208958AE091E00E943E2708
:10593000089580910804853051F482E99BE00E942B
:10594000170780910804853019F00E946329089593
:105950000E94382980910604882399F30E94F52833
:10596000882379F30E94402D0E94000DEACFA0E227
:10597000B0E0EDEBFCE20C94C83280910804843076
:1059800009F583E08093E9008091E80082FF1AC066
:105990008091E80090E085FF09C050E040E060E2BF
:1059A00070E0CE0101960E94A52D91E08091E80063
:1059B0008B778093E800992329F060E2CE0101966D
:1059C0000E94C81DA096E2E00C94E4320E94E92CEB
:1059D0000895292F33272330310521F168F4213030
:1059E000310509F443C02230310509F444C090E088
:1059F00080E030E020E026C02132310551F1223232
:105A00003105A9F76430710590F7FB01EE0FFF1F18
:105A1000E953FD4F208131816D537D4FFB01808122
:105A200090E010C099278130910581F0009729F00E
:105A30000297E9F6EAEAFBE002C0E6EDFBE08491BA
:105A400090E09F01FA01318320830895EAEBFBE0A7
:105A5000F6CF6430710558F6660F771FFB01E153EE
:105A6000FD4F2081318189E090E0ECCF82E190E030
:105A700025E53CE0E7CF8BE790E02AED3BE0E2CF85
:105A800080E189BD82E189BD09B400FEFDCF80912E
:105A9000D8008F7D8093D8008091E0008260809351
:105AA000E0008091E00081FDFCCF0895AF92BF92AD
:105AB000CF92DF92FF920F931F93CF93DF936C01EE
:105AC000EB018A010E94042FF82E811123C00115D9
:105AD000110539F0F80180819181C81BD90BC80EDE
